:1000000001C1000035C1000033C1000031C1000052
:100010002FC100002DC100000C94DF0829C1000091
:10002000DEC5000025C1000023C1000021C1000081
:100030001FC100001DC100001BC1000019C100004C
:1000400017C1000015C10000C9C6000011C10000A1
:100050000FC100000DC100000BC1000009C100006C
:10006000B5C5000005C1000003C1000001C10000CA
:10007000FFC00000FDC00000ACC5000085C5000049
:1000800009C70000D4C60000F3C0000099C50000F5
:10009000EFC00000EDC00000EBC00000E9C00000B0
:1000A000E7C00000E5C0000070C60000E1C000002D
:1000B000DFC0000091C5000086C50000D9C0000067
:1000C000D7C00000D5C00000D3C00000D1C00000E0
:1000D000CFC00000D8C50000D0C50000DAC50000C0
:1000E000C7C00000C5C00000C3C00000C1C0000000
:1000F000BFC000006E616E00696E660000407A103D
:10010000F35A00A0724E18090010A5D4E80000E8C8
:100110007648170000E40B54020000CA9A3B000026
:1001200000E1F505000080969800000040420F00B5
:100130000000A08601000000102700000000E80376
:10014000000000006400000000000A000000000041
:100150000100000000002C76D888DC674F0823DF00
:10016000C1DFAE59E1B1B796E5E3E453C63AE651D3
:10017000997696E8E6C28426EB898C9B62ED407CFA
:100180006FFCEFBC9C9F40F2BAA56FA5F490055A96
:100190002AF75C936B6CF9676DC11BFCE0E40D47BB
:1001A000FEF520E6B500D0ED902E030094357705DE
:1001B0000080841E080000204E0A000000C80C3396
:1001C0003333330F986E12831141EF8D2114893B25
:1001D000E65516CFFEE6DB18D1844B381BF77C1DA5
:1001E000901DA4BBE424203284725E228100C9F1F8
:1001F00024ECA1E53D2700080A400CFFC000C00028
:10020000570CD60E11241FBECFEFCDBFDFE7DEBFE8
:100210008091400080934000811105C098ED21E05D
:1002200094BF209341008CBB28E4AEE6B1E401C04A
:100230001D92AA3DB207E1F711E4A0E0B0E4E6E4C4
:10024000F5E200E00BBF02C007900D92AE36B10799
:10025000D9F711E0C1E0D1E004C02197FE010E946E
:100260007010C030D107C9F70E942A0D0C94971264
:10027000C7CEFB01A485B585ED91FC911197019046
:10028000F081E02D682FCD01099590E080E0089580
:10029000F0CF90E0FC01EF56FF4B30813F3F69F11A
:1002A000FC01E859FF4B2081815C9F4BDC01EC9104
:1002B000B0E2EB9FF0011124FC5FA62FA37021F0A8
:1002C000AE0FBF2FB11D3C93CB01969587959695A8
:1002D0008795892B91F03FB7F894822F90E0409654
:1002E000E80FF91F808194E0769567959A95E1F77C
:1002F000672B09F0887F80833FBF08959FB7F894EC
:10030000E0912A0BF0912B0B8091260B2091C94490
:100310003091CA444091CB445091CC449FBF80FF60
:1003200008C0CF018827892B21F42F5F3F4F4F4F03
:100330005F4F0F0116940794169407941694079430
:1003400016940794F00116940794E00DF11D16948D
:100350000794102C169401181694010C1694011889
:100360001694010C1694011816941694010C11247D
:10037000E019F109A8EEB3E00E9457106E0F7F1F3D
:10038000811D911D0895CF92DF92EF92FF92CF933E
:10039000DF936B017C01B2DFEB01B0DF6C1B7D0BE7
:1003A000683E7340D0F381E0C81AD108E108F10833
:1003B000C851DC4FC114D104E104F10471F7DF919D
:1003C000CF91FF90EF90DF90CF900895AF92BF92C2
:1003D000CF92DF92EF92FF920F931F93CF93DF9311
:1003E0006C017B018B01040F151FEB015E01AE1840
:1003F000BF08C017D10759F06991D601ED91FC9162
:100400000190F081E02DC6010995892B79F7C5018E
:10041000DF91CF911F910F91FF90EF90DF90CF90E0
:10042000BF90AF900895FC0151894289252F30E09B
:10043000842F90E0821B930B541710F0CF960895F1
:1004400001970895FC0197858089981761F0A0892C
:10045000AE0FBF2FB11D53968C9190899F5F9F73F4
:10046000908B90E008958FEF9FEF0895FC019785A2
:100470008089981731F08089E80FF11D838990E019
:1004800008958FEF9FEF0895FC0197852089892FAC
:1004900090E0805C9F4F821B91098F73992708958C
:1004A000FC010FB607FE04C0809111018823A1F062
:1004B000A085B18514968C91149785FF0DC0918904
:1004C0008289981307C015968C9115978F7D159684
:1004D0008C930895E894EAC308950F931F93CF93E4
:1004E000DF93EC018E8581608E8799898A899813C4
:1004F0000BC0E885F985848185FF06C08E8581FD66
:100500000DC080E4848312C0062F19891F5F1F73FA
:100510008A89811315C0CE01C3DFFACF85818F7719
:10052000806490E49483E885F9858583E885F9857E
:10053000628381E090E0DF91CF911F910F91089548
:10054000E989EC0FFD2FF11DED5AFF4F0083198B48
:100550008E85E885F98581FF09C085818F77806662
:1005600090E49483E885F9858583E3CF8581806273
:10057000FBCFCF93DF93EC018E85882359F0E8857C
:10058000F985858185FD03C0848186FD03C0CE0188
:1005900087DFF5CFDF91CF9108958091C7448823FD
:1005A00029F0813120F080518093C74408958093D1
:1005B000500080E0F9CF1F93CF93DF93EC019A8135
:1005C00091609A83A881B9811B968C911B9786FFB5
:1005D00049C080FF39C01D961C9181FF28C08A85C3
:1005E000882341F0DADFEE85FF85309719F08A85A0
:1005F00090E0099519871A861B86EC85FD85309752
:1006000009F009958A858823B1F083E09091C74469
:10061000992399F0905F9093C744E881F98182878C
:100620008A818E7F8A83DF91CF911F9108951987E8
:100630001A861B86EACF86E0E9CF90915000292FD9
:10064000217020935000E7CFA8DFEE85FF8530971B
:1006500029F08A85882311F090E009951A861B8677
:1006600082E0DBCF87FF32C09E012C5E3E4F81FFD0
:100670001DC0887131F093FF04C01A86977F9A835A
:10068000EFCF8B818F5F8B838A8188608A83EB8534
:100690008A85E81728F7E20FF32FF11D80811D9658
:1006A0008C938B858F5F8B8783E0B7CF1D968C9162
:1006B000EA85E23858F4E20FF32FF11D80838A8532
:1006C0008F5F8A87823880F386E0A7CF80E0A5CF4E
:1006D000DC011896ED91FC9193818185138211863E
:1006E000938391E0958381870895FC01828580FF43
:1006F0000DC0CF01845E9E4F2289E389E21760F42A
:10070000E80FF92FF11D808190E00895CF01865602
:100710009F4F2685E785F2CF8FEF9FEF0895FC016D
:100720008285DF0180FF10C053969F01245E3E4FFB
:1007300082899389981778F4290F311DF9018081F6
:100740009F5F9C9390E008951F969F0126563F4F10
:1007500086859785EFCF8FEF9FEF0895FC01828507
:1007600080FF07C092898389292F281B330BC90179
:10077000089596858785F8CFFC018285DF0180FF8B
:1007800011C05296CF01845E9E4FE289E23878F420
:10079000E80FF92FF11D60838C918F5F8C9381E0BE
:1007A00090E008951D96CF014896E585EFCF90E043
:1007B00080E00895BF92CF92DF92EF92FF920F9365
:1007C0001F93CF93DF937C016A01B62EEB010C2FB0
:1007D0000B1910E00C151D0528F46991C701CCDF39
:1007E000892BA9F7C801DF91CF911F910F91FF903D
:1007F000EF90DF90CF90BF90089590E080E0089553
:10080000CF93DF93CDB7DEB72E97CDBFDEBF88E4A1
:1008100091E089879A871B861C8682E08C838B896E
:100820009C898D879E87AE01495E5F4F6EED70E4B7
:10083000CE010196D5D42E96CDBFDEBFDF91CF91EC
:1008400008952091C6483091C74823303105B4F04F
:100850009F938F9385EE90E49F938F938EED90E41A
:100860009F938F938091C5488F938091C4488F93B5
:10087000C7DF8DB79EB708968DBF9EBF0895CF92F4
:10088000DF92EF92FF920F931F93CF93DF93CDB739
:10089000DEB72E97CDBFDEBFEDB6FEB68091C6485F
:1008A0009091C74818161906D4F5CDB6DEB68DB7A7
:1008B0009EB78E978DBF9EBF0DB71EB70F5F1F4FA0
:1008C00089E0E3E1F1E4D80101900D928A95E1F726
:1008D000EDB7FEB73A968DB79EB78F9611928E17E9
:1008E0009F07E1F76DEE70E4C80108960E94901230
:1008F00089E391E089879A871B861C8682E08C8336
:100900008091C4489091C5488D879E87AE01435E13
:100910005F4FB801CE01019663D4CDBEDEBEEDBE01
:10092000FEBE2E96CDBFDEBFDF91CF911F910F91FE
:10093000FF90EF90DF90CF9008958230910519F1EC
:10094000C4F4009721F181309105D9F09F938F93E2
:100950008DEE90E49F938F9384EC98E49F938F9314
:100960008EDF0F900F900F900F900F900F9088ECEC
:1009700008958330910549F08430910539F78AE074
:10098000089581E0089582E0089583E0089580E06D
:10099000089590E0FC01EF56FF4B20812F3F79F046
:1009A000815C9F4BDC01EC91B0E2EB9FF0011124E4
:1009B000FC5F9085922381E019F480E008958FEF29
:1009C00008950F931F93CF93DF93893208F0BDC032
:1009D00090E0DC01AF56BF4B2C912F3F09F4B5C01E
:1009E0008C01015C1F4BE801E881D0E2ED9FF00132
:1009F0001124FC5F611133C0268330812323AC01B5
:100A000048595F4B211111C0EA012881309749F103
:100A1000283038F57096E20FF11D3FB7F894208129
:100A2000611122C0277F20833FBFFA0130813F3F01
:100A300009F48BC0E8012881363058F53091E6057D
:100A4000432F4770241312C0EC91E53008F0EE0FED
:100A50008091010AE095E823E093010A76C025839E
:100A6000CCCFF0E0E0E0D9CF2860DDCF387169F479
:100A7000213079F4EC91E53008F0EE0F8091410AD5
:100A8000E095E823E093410A60C0383111F4263044
:100A900089F38A5E9F4BFC01808186FF3DC0909167
:100AA000E8059770482F50E04F7B94171506A1F585
:100AB000EC918091920B8E2309F447C0C0E22C9FE9
:100AC000900111243C5FE83008F055C0205F3F4F93
:100AD000E20FF32FF11D4FB7F8949091800B9E7F9A
:100AE0009093800B90918E0B90FFFCCF2091920BF6
:100AF00090E08095909530E08223932328ED24BFE9
:100B00008093920B8091800B81608093800B808119
:100B10008F7780834FBF19C085FF15C030E1839F59
:100B2000F0011124F75F91819770973071F4EC9187
:100B3000853280F48032B0F4883009F49CCF803163
:100B400009F483CF02C08111F2CFDF91CF911F91C1
:100B50000F910895803409F4ACCF8038B1F710922A
:100B6000A006F3CF90E1899FF0011124F75F818106
:100B70008F7E8183EACFF0E0E0E0ADCFDEDE60E0A3
:100B800020CFDBDE61E01DCFEF93FF93E9ECF4E4CF
:100B90008F938FB78F9380818F5F808381818F4FF9
:100BA000818382818F4F828383818F4F838381E012
:100BB0008093260B8F918FBF8F91FF91EF911895A6
:100BC0000F930AE00FC00F9308E00CC00F9306E0EC
:100BD00009C00F9304E006C00F9302E003C00F9317
:100BE00000E000C00F920FB60F920BB60F921F924B
:100BF0001124FF921F932F933F934F935F936F9313
:100C00007F938F939F93AF93BF93CF93DF93EF9394
:100C1000FF93A2E0B0E4A00FB11DCD91DC91000FD5
:100C20000D5FA02FB0E0FC90109761F01F2D16957E
:100C300018F041F02296FBCFE991F9913097B9F382
:100C40000995F5CFA02FB0E0FC92FF91EF91DF91D5
:100C5000CF91BF91AF919F918F917F916F915F9154
:100C60004F913F912F911F91FF901F900F900BBEBE
:100C70000F900FBE0F900F911895EF93FF93F89878
:100C8000E1E3F8E40BC0EF93FF93F898E1E3F8E4B5
:100C900033C0EF93FF93E1E3F8E45EC02F932FB7E7
:100CA0002F938F939F93AF93BF936894CF93DF93CA
:100CB00020E0C085D8E09289DF01A90FB21FAD5AAC
:100CC000BF4F8C9120E42C838A839F5F9F738D811B
:100CD0002189291302C08F7D8D83928BDF91CF9163
:100CE0000EF0FACBBF91AF919F918F912F912FBFB3
:100CF0002F91FF91EF9118952F932FB72F933F933B
:100D00008F939F93CF93DF93C085D8E02E812F7E62
:100D10002E83898198818674880F3685382B82FDD1
:100D20000DC0C78581E08C0F8F732089281791F043
:100D3000CE0FDF2F20E0D21F9B8B87873687DF9176
:100D4000CF919F918F913F912F912FBF2F91FF9125
:100D5000EF9118953064F2CF8F938FB78F939F9355
:100D6000CF93DF93C085D8E09D8188818C8187FDFA
:100D7000FCCF9F7B90689D83DF91CF919F918F9156
:100D80008FBF8F91FF91EF9118951F920F920FB621
:100D90000F9211240BB60F922F933F934F935F93B3
:100DA0006F937F938F939F93AF93BF93EF93FF9333
:100DB00085ED94E400DCFF91EF91BF91AF919F919D
:100DC0008F917F916F915F914F913F912F910F90F4
:100DD0000BBE0F900FBE0F901F9018951F920F9291
:100DE0000FB60F9211240BB60F922F933F934F9390
:100DF0005F936F937F938F939F93AF93BF93EF9383
:100E0000FF9383E796E4D7DBFF91EF91BF91AF911A
:100E10009F918F917F916F915F914F913F912F9112
:100E20000F900BBE0F900FBE0F901F9018951F9242
:100E30000F920FB60F9211248F939F938091C54408
:100E40009091C644892B01F18091C3449091C44490
:100E5000019691708093C3449093C4448091C3449D
:100E60009091C444109222088091C5449091C64448
:100E700001978093C5449093C6449F918F910F90A2
:100E80000FBE0F901F901895809125088F7D80933D
:100E90002508F3CF1F920F920FB60F9211240BB6B5
:100EA0000F920F931F932F933F934F935F936F93E3
:100EB0007F938F939F93AF93BF93CF93DF93EF93E2
:100EC000FF93809120082091C1443091C2442F5F4C
:100ED0003F4F31702093C1443093C2442091C144AC
:100EE0003091C2442091BF443091C0442F5F3F4FA6
:100EF0002093BF443093C044209100403091014082
:100F000021303105C9F108F452C02230310509F40D
:100F1000E2C02330310561F48B3251F41092BD44AC
:100F20001092BE4481E090E0809300409093014095
:100F30008091DB41813049F08091BF449091C04461
:100F40008E3F914008F039C14F98FF91EF91DF91AA
:100F5000CF91BF91AF919F918F917F916F915F9151
:100F60004F913F912F911F910F910F900BBE0F90BA
:100F70000FBE0F901F90189590ED980F9A3018F4AF
:100F800083E090E0D1CF2091BD443091BE44A901CF
:100F90004F5F5F4F4093BD445093BE442F553B4B32
:100FA000F90180831092004010920140C1CF8A3332
:100FB00019F08D3009F077C083E090E08093004015
:100FC0009093014010E000E0E80185E0CC0FDD1FC8
:100FD0008A95E1F7CF59DC4B2C8D8091BD449091DF
:100FE000BE442817190609F057C04C8D50E0BE01C9
:100FF00081EA94E40E947A12892B09F04DC0009393
:1010000060438E8D9F8D80935E4390935F4382E01B
:1010100090E08093004090930140E091604320E293
:10102000E29FF0011124EF59FC4B858D882359F183
:101030008091BD449091BE442091BF443091C04402
:10104000029628173907F8F08091C1449091C24464
:101050002091BD443091BE440297821B930B917046
:101060008093C1449093C2442091BD443091BE44CA
:101070008091BF449091C0440297821B930B809350
:10108000BF449093C04410925C4310925D43109211
:10109000BD441092BE444CCF0F5F1F4F0A30110564
:1010A00009F092CFF4CF2091BD443091BE442C3151
:1010B000310509F465CF2091BD443091BE44A901AA
:1010C0004F5F5F4F4093BD445093BE442F553B4B01
:1010D000F90180832DCF8D3019F08A3009F057C087
:1010E000E0915C43F0915D43E452FE4B1082E0914D
:1010F000604320E2E29FF0011124EF59FC4B858D03
:10110000882341F12091BF443091C04480915C43D9
:1011100090915D4328173907E8F08091C144909180
:10112000C24420915C4330915D43821B930B9170CC
:101130008093C1449093C2448091BF449091C04435
:1011400020915C4330915D43821B930B8093BF449D
:101150009093C044E0915E43F0915F43309761F01B
:10116000C0E8C09345048CED91E4099510925E436C
:1011700010925F43C093460483E090E08093004068
:101180009093014010925C4310925D43D1CE209128
:101190005C4330915D432038314009F4F1CE209119
:1011A0005C4330915D43A9014F5F5F4F40935C43C7
:1011B00050935D4324523E4B8BCF4F9AC6CE1F9225
:1011C0000F920FB60F9211248F9381E080935301F9
:1011D0008093DA418F910F900FBE0F901F9018955A
:1011E0002F923F924F925F926F927F928F929F9237
:1011F000AF92BF92CF92DF92EF92FF920F931F9325
:10120000CF93DF93CDB7DEB72F97CDBFDEBF6C0195
:101210001B015A01FC011682178283819E012F5FF8
:101220003F4F490181FDCEC08FEF9FEFD4C2F12C1B
:10123000512C00E0003238F48B3209F190F4803206
:10124000F9F0833209F107FD34C020ED280F2A3070
:1012500020F506FF1BC0FAE0FF9E200D1124F22EA0
:1012600005C08D3279F0803371F70160F10193FD93
:10127000859193FF81911F018111DCCF1AC002601B
:101280000460F4CF0860F2CF0061F0CF3AE0539EE3
:10129000200D1124522E0062E9CF8E3221F406FD7A
:1012A00097C20064E3CF8C3611F40068DFCF883634
:1012B000E9F29BEB980F933008F05CC00061805E10
:1012C00006FD02C046E0F42E102F1F73853609F08C
:1012D00058C0106417FF5EC08F2D9BE39F1508F464
:1012E0008BE344244394480E27E03501F4E06F0E6D
:1012F000711CF5016081718182819381042DA401AB
:101300005AD55C01F981FC87F0FF03C00DE2F3FFC1
:1013100007C00BE211FD04C0012F047012FD00E2B2
:101320002C852C70E22E09F467C00111B9C2F3E0DC
:10133000E12CF51590F483E0E52CE81A13FD07C0C5
:10134000B60180E290E025D6EA94E110F9CF0023BF
:1013500021F0B601802F90E01CD63C8524EFA22E10
:1013600020E0B22E33FD04C098EFA92E90E0B92EF4
:10137000107121C09BE9980F933008F039C10F7E9E
:101380009FCF863611F41068A5CFFF2009F4A2CFB5
:10139000FA94A0CFE7E02F2DEF1518F427E037E0FF
:1013A000F32E412CA2CF11118052B60190E0F1D55D
:1013B0008FEFA81AB80AF50184918111F4CFE110DA
:1013C00069C25301F6019381F10193FD859193FF69
:1013D00081911F01882309F4FBC1853241F493FDFB
:1013E000859193FF81911F01853209F020CFB601CD
:1013F00090E0CFD53501E5CF17FF6CC04A0CFC85D6
:10140000F4FF04C08A81813309F44A9414140CF067
:1014100083C028E0241510F488E0482E85E090E091
:1014200017FF06C0C501B7FE02C090E080E001963C
:1014300001110196FF2031F02F2D30E02F5F3F4F3B
:10144000820F931F5816190619F014F0E52CE81AAC
:10145000812F897011F4E11064C0002321F0B601DE
:10146000802F90E096D513FD02C0E11060C017FFF9
:1014700077C08501B7FE02C010E000E0C501841905
:1014800091092C016F2D70E0EE27FF27E61BF70B6B
:10149000EE87FF870F3F100721F4B6018EE290E040
:1014A00078D5A016B1060CF448C0401651060CF0D1
:1014B00044C0F501E01BF10BE80DF91D81810150DD
:1014C00011092E853F8502171307CCF1B60190E074
:1014D00060D5E0CF16FDA2CFEF2DF0E0EA15FB05B9
:1014E00034F03CEFA3163FEFB3060CF010683296D1
:1014F000E80DF91D01C0FA94FF2019F082918033A4
:10150000D1F317FF8BCF442443944F0CFA141B04E0
:1015100031F02CF0FA1882CF442443947FCFF12C81
:101520007DCFB60180E290E034D5EA9494CFB60145
:1015300080E390E02ED5EA9498CF80E3C0CFA01648
:10154000B10641F49A81963348F4953319F43C85F9
:1015500034FF04C0B60190E01CD531CF81E3FACF4F
:101560008A81813319F09C859F7E9C87B60190E02B
:1015700010D5FF2099F0B6018EE290E00AD5F394E1
:10158000F394E2E001E00E0FE80DF92DF11D8081EA
:10159000B60190E0FED4E02F0F11F4CF85E690E085
:1015A00014FF02C085E490E0B601F3D4B7FC06C096
:1015B000A114B104B1F4EC85E4FF13C0B194A1947B
:1015C000B1088DE2B60190E0E4D480E32AE0A216EF
:1015D000B1044CF4B60190E0DCD4B601C501C0966C
:1015E000BBCF8BE2EFCF8F5FFAE0AF1AB108EECF3F
:1015F0008336C1F0833769F1833509F057C035016F
:10160000F2E06F0E711CF501A080B1806F2D70E0CB
:1016100006FD02C06FEF7FEFC501A5D48C879D87C3
:1016200000680DC0350132E0630E711CF501808148
:10163000898321E030E02C873D8754010F7703FD3B
:1016400006C02C853D855216130609F0A0F4E52C42
:1016500028C0350132E0630E711CF501A080B18015
:101660006F2D70E006FD02C06FEF7FEFC50186D4DD
:101670008C879D87E3CFB60180E290E08AD45A94AC
:10168000E0CFF50107FD859107FF81915F01B6016C
:1016900090E07FD4E110EA948C859D8501978C873A
:1016A0009D87EC85FD85EF2B61F789CE843619F097
:1016B000893609F070C0350107FF62C0F4E06F0E93
:1016C000711CF5016081718182819381102F1F76D9
:1016D00097FF08C090958095709561957F4F8F4FCB
:1016E0009F4F10682AE030E0A40183D4A82EA818E8
:1016F000BA2C012F16FF0AC00E7FAF1438F414FF66
:1017000004C012FD02C0012F0E7EBF2C04FF9CC03E
:10171000FE01EA0DF11D8081803309F08EC0097E43
:10172000F02FF870EF2E03FD9DC000FF97C0FA2C3C
:10173000B51410F4F50CFB1804FF9AC0B60180E351
:1017400090E027D402FF08C088E790E001FF02C0C4
:1017500088E590E0B6011DD4AF1408F495C0AA94B2
:101760000A2D10E00F5F1F4F080D191DF80182911F
:101770008F01B60190E00DD480169106B9F71FCE07
:10178000F2E06F0E711CF50160817181072E000C73
:10179000880B990B9BCF102F8537A1F41F7E2AE071
:1017A00030E0350117FF40C0F4E06F0E711CF50109
:1017B0006081718182819381A4011BD4A82EA81815
:1017C0001F7796CF197F8F3661F1D8F4883521F1D4
:1017D000F601868197812F96CDBFDEBFDF91CF9135
:1017E0001F910F91FF90EF90DF90CF90BF90AF903F
:1017F0009F908F907F906F905F904F903F902F9031
:101800000895803739F0883719F714FD146020E106
:1018100030E0C7CF1061F9CF04FD166020E132E05F
:10182000C0CF28E030E0BDCFF2E06F0E711CF501B3
:101830006081718190E080E0BFCF02FD02C0B3946F
:101840006FCFB394B3946CCF802F867809F468CFB0
:10185000F6CFB60180E290E09CD3B394B514C8F300
:10186000E12C6ACFE52CEB18B51408F465CFF8CF5E
:10187000802F867809F470CF8BE201FF80E207FDAC
:101880008DE2B60190E067CFB60180E390E081D3AE
:10189000FA9462CFB60180E290E07BD3EA948FCDD8
:1018A00024E0E12C251508F054CD84E045CD1092BC
:1018B00033481092344888EE93E0A0E0B0E0809383
:1018C000354890933648A0933748B09338482EEB6C
:1018D00030E4209331483093324820E638E02093BA
:1018E000394830933A4826EF31E020933B48309313
:1018F0003C4822E020933D4810923E4810923F48D9
:1019000010926D4610926E4680936F46909370468B
:10191000A0937146B093724620ED30E420936B465D
:1019200030936C4640E059E04093734650937446C0
:101930001092CF441092D0448093D1449093D244DB
:10194000A093D344B093D4442093CD443093CE4459
:1019500080E299E08093D5449093D64480910948E1
:10196000811103C081E08093094880911148811161
:1019700003C081E08093114880911948811103C010
:1019800081E08093194880912148811103C081E052
:101990008093214880912948811103C081E0809380
:1019A000294881E398E48093C4489093C54883E034
:1019B00090E08093C6489093C7488091C8488111B1
:1019C00003C081E08093C8481092D0481092D1485B
:1019D0001092D2481092D3481092D4481092D54811
:1019E0006DE070E090E080E0A9D40097F9F080937A
:1019F000D0489093D1482CE030E02093D2483093E7
:101A0000D3482091D4483091D548232B11F4FC01C0
:101A100010828CE090E08093D4489093D5486CE19C
:101A200071E48091D0489091D1487AC58091D04896
:101A30009091D148009709F0F8D31092D0481092B5
:101A4000D1481092D4481092D5481092D2481092A2
:101A5000D348089588ED94E284BF9093680021E014
:101A60002093030A8EEF8093260A8093270A9BE037
:101A70009093000A32E03093E6052093430A809366
:101A8000660A8093670A9093400A9093E70537E0CF
:101A90003093010B80930C0B10920D0B95E09093FB
:101AA000000B3093110B80931C0B10921D0B909325
:101AB000100B3093310B80933C0B10923D0B9093A5
:101AC000300B4FEF5FE04093AA0B5093AB0B80E8D5
:101AD0008093820B1092810B4BEF53E04093AE0B3F
:101AE0005093AF0B81E78093800B909302068EE0BA
:101AF0008093050680E6809303069093000680910C
:101B0000B000887F85608093B0008091B200887FAC
:101B100085608093B2008FED9EE280932C0B9093B2
:101B20002D0B2093250B1092210B83E08093200B2B
:101B30007894C091C448D091C5488E8580FF12C06A
:101B4000E881F9810680F781E02DCE010995E885CD
:101B5000F985868116828581158280E4848388894F
:101B60008F871E866FB7F894E885F985168233E073
:101B7000378381E493E080879187148680E88583AA
:101B800080EC86832D857C858A859B85FC01239F3F
:101B9000E00DF11D112445915491271708F03EC026
:101BA000593290F4252F30E0F901EF56FF4BA08118
:101BB000AF3F51F0215C3F4BE901E881D0E2ED9F5E
:101BC000F0011124FC5FA18321E0250F293230F5BB
:101BD00030E0F901EF56FF4BC081CF3FF9F0F9013A
:101BE000E15CFF4BA081E0E2AE9FD0011124BC5F1D
:101BF00028593F4BF901D081F0E0E0E0D83030F4D3
:101C00009D01205F3F4FF901ED0FF11D3FB7F894A3
:101C10001296CC932081286020833FBFFC0123E0F3
:101C2000729FE00DF11D1124319625913491F90137
:101C3000FF27EE51FA4F9081832F80958923482BFF
:101C400040836FBFD0E0C0E0CE010E94BE0562E3DA
:101C500070E080E090E00E94C3012196C530D1057C
:101C600099F7D0E0C0E0CE010E94C10562E370E0C8
:101C700080E090E00E94C3012196C530D10599F71C
:101C8000C4E0D0E0CE010E94BE0562E370E080E0D7
:101C900090E00E94C3012197A8F7C4E0D0E0CE01F4
:101CA0000E94C10562E370E080E090E00E94C30101
:101CB0002197A8F781E08093C84461E870E080E054
:101CC0000E94490161E870E081E00E94490161E8F9
:101CD00070E082E00E94490161E870E083E00E94C8
:101CE000490161E870E08AE00E94490190E080E0EB
:101CF0000E94C10581E090E00E94C10582E090E071
:101D00000E94C10583E090E00E94C10584E090E05C
:101D10000E94C10590E080E00E94C10581E090E052
:101D20000E94C10582E090E00E94C10583E090E03E
:101D30000E94C10584E090E00E94C10562E070E06D
:101D40008FE10E94490162E070E080E20E94490157
:101D500089E291E40E9421048FE10E94C904082EC7
:101D6000000C990B8F5B9E4B0E9421048FE10E9417
:101D7000C904813099F48EE491E40E94210484E046
:101D800090E00E94BE0568EB7BE080E090E00E945E
:101D9000C30184E090E00E94C105E8CF80E20E9488
:101DA000C904813019F78EE591E4E7CF8091D048DE
:101DB0009091D1483AC2283008F027E03327DA0161
:101DC000990F311D87FD916000966105710539F409
:101DD00032602E5F3D9330E32A95E1F708959F3FEF
:101DE00030F080387105610509F03C5F3C5F3D9340
:101DF000913008F08068911DDF93CF931F930F936C
:101E0000FF92EF92192F987F9695E92F96959695C8
:101E1000E90FFF27EA5AFE4F99273327EE24FF24C4
:101E2000A701E70105900894079428F4360FE71EF0
:101E3000F81E491F511D660F771F881F991F0694B2
:101E4000A1F70590079428F4E70EF81E491F561FC6
:101E5000C11D770F881F991F661F0694A1F7059073
:101E6000079428F4F80E491F561FC71FD11D880F6D
:101E7000991F661F771F0694A1F70590079420F419
:101E8000490F561FC71FD81F990F661F771F881F3E
:101E90000694A9F784911095177041F0D695C795CF
:101EA00057954795F794E7941A95C1F7ECEFF0E052
:101EB00068941590159135916591959105907FE203
:101EC0007395E118F10A430B560BC90BD009C0F703
:101ED000E10CF11E431F561FC91FD01D7EF4703345
:101EE00011F48A95E6CFE894015030F0080F0AF417
:101EF0000027021708F4202F2395022F7A3328F0A9
:101F000079E37D932A95E9F710C07D932A9589F6A8
:101F1000069497956795379517951794E118F10AE8
:101F2000430B560BC90BD00998F023957E917395FE
:101F30007A3308F070E37C932013B8F77E917061D8
:101F40007D9330F0839571E37D9370E32A95E1F7FB
:101F50001124EF90FF900F911F91CF91DF9199275E
:101F600087FD90950895FC01059061507040011027
:101F7000D8F7809590958E0F9F1F0895FC016150B2
:101F8000704001900110D8F7809590958E0F9F1F9B
:101F900008950F931F93CF93DF93182F092FEB0111
:101FA0008B8181FD09C01FEF0FEF812F902FDF91F3
:101FB000CF911F910F91089582FF14C02E813F8110
:101FC0008C819D81281739073CF4E881F981CF0184
:101FD00001968883998310838E819F8101968E83D9
:101FE0009F83E3CFE885F985812F0995892BA1F39C
:101FF000DACFFA01AA27283051F1203181F1E89493
:102000006F936E7F6E5F7F4F8F4F9F4FAF4FB1E0EB
:102010003ED0B4E03CD0670F781F891F9A1FA11DE6
:10202000680F791F8A1F911DA11D6A0F711D811DE7
:10203000911DA11D20D009F468943F912AE0269FAC
:1020400011243019305D3193DEF6CF010895462F0B
:102050004770405D4193B3E00FD0C9F7F6CF462FEC
:102060004F70405D4A3318F0495D31FD4052419355
:1020700002D0A9F7EACFB4E0A69597958795779512
:102080006795BA95C9F700976105710508959B0199
:10209000AC010A2E06945795479537952795BA9522
:1020A000C9F7620F731F841F951FA01D089509D0E3
:1020B000A59F900DB49F900DA49F800D911D11249C
:1020C0000895A29FB001B39FC001A39F700D811D11
:1020D0001124911DB29F700D811D1124911D089531
:1020E000EE0FFF1F0024001C0BBE0790F691E02DA1
:1020F00009940F931F93CF93DF938230910510F4CF
:1021000082E090E0E091D848F091D94830E020E0BA
:10211000B0E0A0E0309799F42115310509F44AC0E8
:10212000281B390B24303105D8F58A819B81611534
:10213000710589F1FB0182839383FE0111C0408107
:1021400051810281138148175907E0F04817590758
:1021500099F4109761F012960C93129713961C93B2
:102160003296CF01DF91CF911F910F910895009387
:10217000D8481093D948F4CF2115310551F04217B2
:10218000530738F0A901DB019A01BD01DF01F80115
:10219000C1CFEF01F9CF8093D8489093D948CDCFE4
:1021A000FE01E20FF31F819391932250310928839E
:1021B0003983D7CF2091D6483091D748232B41F48B
:1021C00020911240309113402093D6483093D74845
:1021D00020911040309111402115310541F42DB767
:1021E0003EB74091144050911540241B350BE091AF
:1021F000D648F091D748E217F307A0F42E1B3F0B07
:102200002817390778F0AC014E5F5F4F2417350768
:1022100048F04E0F5F1F4093D6485093D7488193A4
:1022200091939FCFF0E0E0E09CCFCF93DF930097B6
:10223000E9F0FC01329712821382A091D848B09144
:10224000D948ED0130E020E01097A1F420813181E0
:10225000820F931F2091D6483091D748281739070D
:1022600009F061C0E093D648F093D748DF91CF9151
:102270000895EA01CE17DF07E8F54A815B819E01E8
:1022800041155105B1F7E901EA83FB834991599161
:10229000C40FD51FEC17FD0761F480819181029670
:1022A000840F951FE90188839983828193818A83B2
:1022B0009B83F0E0E0E012968D919C91139700973C
:1022C000B9F52D913C911197CD010296820F931F84
:1022D0002091D6483091D7482817390739F63097DA
:1022E00051F51092D8481092D948A093D648B0938F
:1022F000D748BCCFC283D38340815181840F951FBF
:10230000C817D90761F44E5F5F4F88819981480FE4
:10231000591F408351838A819B8182839383211536
:10232000310509F0B0CFE093D848F093D9489ECF5B
:10233000FD01DC01C0CF12821382D7CF4F925F9292
:102340006F927F928F929F92AF92BF92CF92DF92C5
:10235000EF92FF920F931F93CF93DF938C0100971F
:1023600091F4CB01DF91CF911F910F91FF90EF90EE
:10237000DF90CF90BF90AF909F908F907F906F90A5
:102380005F904F90B6CEFC01E60FF71F9C012250E4
:102390003109E217F30708F4AAC0D901CD91DC9105
:1023A0001197C617D70718F1C530D10570F0CE01C7
:1023B00004978617970748F0C61BD70B2297C1933F
:1023C000D1936D937C93CF0130DFC801DF91CF9122
:1023D0001F910F91FF90EF90DF90CF90BF90AF9043
:1023E0009F908F907F906F905F904F9008955B01CA
:1023F000AC1ABD0A4C018C0E9D1EA091D848B0911C
:10240000D948512C412CF12CE12C109731F58091B9
:10241000D6489091D7488815990509F05CC04616B2
:10242000570608F058C080911040909111400097D5
:1024300041F48DB79EB74091144050911540841BD4
:10244000950BE817F90708F052C0E093D648F093CF
:10245000D748F90160837183B8CF8D919C91119712
:1024600012966C90129713967C901397A815B90545
:1024700059F56C0142E0C40ED11CCA14DB0420F1F2
:10248000AC014A195B09DA011296159780F0628255
:10249000738240835183D9016D937C93E114F104DD
:1024A00071F0D7011296ED93FC9313978ECF22967D
:1024B0008C0F9D1FF90180839183F301EFCFE0938F
:1024C000D848F093D94881CF4816590608F42C0112
:1024D0007D01D3019ACFCB010CDE7C01009739F04E
:1024E000AE01B80114D0C801A0DE87016ECF10E0A4
:1024F00000E06BCFFB01DC0104C08D9101908019DD
:1025000021F441505040C8F7881B990B0895FB01F6
:10251000DC0102C001900D9241505040D8F708955F
:10252000FB01DC0101900D920020E1F7089511E01C
:10253000C1E0D1E003C0FE01D3DD2196C230D10756
:06254000D1F7F894FFCF73
:102546000300CA41BA41AA419A418A417A41000030
:102556000000DA48800000000000404040400000D3
:102566000000000022230000000000000000000020
:102576000000800000000000000000002021000094
:102586000000000000000001010101010102020239
:102596000202020202030303030303030304040407
:1025A60004050505050505050001020304050607E2
:1025B60000010203040500010203040506070001E9
:1025C60002030405060700010203000102030405D5
:1025D60006010204081020408001020408102001B0
:1025E60002040810204080010204081020408001E7
:1025F60002040801020408102040000000006D02D9
:10260600E6011302B902440222023602000000006B
:10261600BC03DA03FD036803AE038F03750325735A
:1026260025730D0A005B494E464F5D2000617474A8
:10263600656D7074656420746F2067657420696EBB
:1026460076616C6964206C65642070696E2025640F
:102656000D0A005B4552524F525D20002B3132303D
:102666003633383435303130005374617274207229
:10267600656164696E672070696E20696E70757435
:102686000050696E2050312076616C3A2000506906
:102696006E20504531207472696767657200506913
:0E26A6006E20504532207472696767657200BD
:00000001FF
